{
  "_format": "hh-sol-artifact-1",
  "contractName": "Upload",
  "sourceName": "contracts/Upload.sol",
  "abi": [
    {
      "inputs": [
        {
          "internalType": "address",
          "name": "",
          "type": "address"
        },
        {
          "internalType": "uint256",
          "name": "",
          "type": "uint256"
        }
      ],
      "name": "accessLogs",
      "outputs": [
        {
          "internalType": "address",
          "name": "user",
          "type": "address"
        },
        {
          "internalType": "bool",
          "name": "access",
          "type": "bool"
        }
      ],
      "stateMutability": "view",
      "type": "function"
    },
    {
      "inputs": [
        {
          "internalType": "string",
          "name": "url",
          "type": "string"
        }
      ],
      "name": "addRecord",
      "outputs": [],
      "stateMutability": "nonpayable",
      "type": "function"
    },
    {
      "inputs": [
        {
          "internalType": "address",
          "name": "owner",
          "type": "address"
        }
      ],
      "name": "getRecords",
      "outputs": [
        {
          "internalType": "string[]",
          "name": "",
          "type": "string[]"
        }
      ],
      "stateMutability": "view",
      "type": "function"
    },
    {
      "inputs": [
        {
          "internalType": "address",
          "name": "user",
          "type": "address"
        }
      ],
      "name": "grantAccess",
      "outputs": [],
      "stateMutability": "nonpayable",
      "type": "function"
    },
    {
      "inputs": [
        {
          "internalType": "address",
          "name": "",
          "type": "address"
        },
        {
          "internalType": "address",
          "name": "",
          "type": "address"
        }
      ],
      "name": "permissions",
      "outputs": [
        {
          "internalType": "bool",
          "name": "",
          "type": "bool"
        }
      ],
      "stateMutability": "view",
      "type": "function"
    },
    {
      "inputs": [
        {
          "internalType": "address",
          "name": "user",
          "type": "address"
        }
      ],
      "name": "revokeAccess",
      "outputs": [],
      "stateMutability": "nonpayable",
      "type": "function"
    }
  ],
  "bytecode": "0x6080604052348015600f57600080fd5b506110928061001f6000396000f3fe608060405234801561001057600080fd5b50600436106100625760003560e01c80630ae5e739146100675780631f9838b51461008357806385e68531146100b35780638d4b31b1146100cf578063a0076e8414610100578063d81aa8c414610130575b600080fd5b610081600480360381019061007c919061088f565b61014c565b005b61009d600480360381019061009891906108bc565b6102de565b6040516100aa9190610917565b60405180910390f35b6100cd60048036038101906100c8919061088f565b61030d565b005b6100e960048036038101906100e49190610968565b610529565b6040516100f79291906109b7565b60405180910390f35b61011a6004803603810190610115919061088f565b610593565b6040516101279190610b32565b60405180910390f35b61014a60048036038101906101459190610c89565b6107a9565b005b60018060003373ffffffffffffffffffffffffffffffffffffffff1673ffffffffffffffffffffffffffffffffffffffff16815260200190815260200160002060008373ffffffffffffffffffffffffffffffffffffffff1673ffffffffffffffffffffffffffffffffffffffff16815260200190815260200160002060006101000a81548160ff021916908315150217905550600260003373ffffffffffffffffffffffffffffffffffffffff1673ffffffffffffffffffffffffffffffffffffffff16815260200190815260200160002060405180604001604052808373ffffffffffffffffffffffffffffffffffffffff168152602001600115158152509080600181540180825580915050600190039060005260206000200160009091909190915060008201518160000160006101000a81548173ffffffffffffffffffffffffffffffffffffffff021916908373ffffffffffffffffffffffffffffffffffffffff16021790555060208201518160000160146101000a81548160ff021916908315150217905550505050565b60016020528160005260406000206020528060005260406000206000915091509054906101000a900460ff1681565b6000600160003373ffffffffffffffffffffffffffffffffffffffff1673ffffffffffffffffffffffffffffffffffffffff16815260200190815260200160002060008373ffffffffffffffffffffffffffffffffffffffff1673ffffffffffffffffffffffffffffffffffffffff16815260200190815260200160002060006101000a81548160ff02191690831515021790555060005b600260003373ffffffffffffffffffffffffffffffffffffffff1673ffffffffffffffffffffffffffffffffffffffff16815260200190815260200160002080549050811015610525578173ffffffffffffffffffffffffffffffffffffffff16600260003373ffffffffffffffffffffffffffffffffffffffff1673ffffffffffffffffffffffffffffffffffffffff168152602001908152602001600020828154811061045757610456610cd2565b5b9060005260206000200160000160009054906101000a900473ffffffffffffffffffffffffffffffffffffffff1673ffffffffffffffffffffffffffffffffffffffff1603610518576000600260003373ffffffffffffffffffffffffffffffffffffffff1673ffffffffffffffffffffffffffffffffffffffff16815260200190815260200160002082815481106104f3576104f2610cd2565b5b9060005260206000200160000160146101000a81548160ff0219169083151502179055505b80806001019150506103a5565b5050565b6002602052816000526040600020818154811061054557600080fd5b90600052602060002001600091509150508060000160009054906101000a900473ffffffffffffffffffffffffffffffffffffffff16908060000160149054906101000a900460ff16905082565b60603373ffffffffffffffffffffffffffffffffffffffff168273ffffffffffffffffffffffffffffffffffffffff1614806106555750600160008373ffffffffffffffffffffffffffffffffffffffff1673ffffffffffffffffffffffffffffffffffffffff16815260200190815260200160002060003373ffffffffffffffffffffffffffffffffffffffff1673ffffffffffffffffffffffffffffffffffffffff16815260200190815260200160002060009054906101000a900460ff165b610694576040517f08c379a000000000000000000000000000000000000000000000000000000000815260040161068b90610d5e565b60405180910390fd5b6000808373ffffffffffffffffffffffffffffffffffffffff1673ffffffffffffffffffffffffffffffffffffffff168152602001908152602001600020805480602002602001604051908101604052809291908181526020016000905b8282101561079e57838290600052602060002001805461071190610dad565b80601f016020809104026020016040519081016040528092919081815260200182805461073d90610dad565b801561078a5780601f1061075f5761010080835404028352916020019161078a565b820191906000526020600020905b81548152906001019060200180831161076d57829003601f168201915b5050505050815260200190600101906106f2565b505050509050919050565b6000803373ffffffffffffffffffffffffffffffffffffffff1673ffffffffffffffffffffffffffffffffffffffff168152602001908152602001600020819080600181540180825580915050600190039060005260206000200160009091909190915090816108199190610f8a565b5050565b6000604051905090565b600080fd5b600080fd5b600073ffffffffffffffffffffffffffffffffffffffff82169050919050565b600061085c82610831565b9050919050565b61086c81610851565b811461087757600080fd5b50565b60008135905061088981610863565b92915050565b6000602082840312156108a5576108a4610827565b5b60006108b38482850161087a565b91505092915050565b600080604083850312156108d3576108d2610827565b5b60006108e18582860161087a565b92505060206108f28582860161087a565b9150509250929050565b60008115159050919050565b610911816108fc565b82525050565b600060208201905061092c6000830184610908565b92915050565b6000819050919050565b61094581610932565b811461095057600080fd5b50565b6000813590506109628161093c565b92915050565b6000806040838503121561097f5761097e610827565b5b600061098d8582860161087a565b925050602061099e85828601610953565b9150509250929050565b6109b181610851565b82525050565b60006040820190506109cc60008301856109a8565b6109d96020830184610908565b9392505050565b600081519050919050565b600082825260208201905092915050565b6000819050602082019050919050565b600081519050919050565b600082825260208201905092915050565b60005b83811015610a46578082015181840152602081019050610a2b565b60008484015250505050565b6000601f19601f8301169050919050565b6000610a6e82610a0c565b610a788185610a17565b9350610a88818560208601610a28565b610a9181610a52565b840191505092915050565b6000610aa88383610a63565b905092915050565b6000602082019050919050565b6000610ac8826109e0565b610ad281856109eb565b935083602082028501610ae4856109fc565b8060005b85811015610b205784840389528151610b018582610a9c565b9450610b0c83610ab0565b925060208a01995050600181019050610ae8565b50829750879550505050505092915050565b60006020820190508181036000830152610b4c8184610abd565b905092915050565b600080fd5b600080fd5b7f4e487b7100000000000000000000000000000000000000000000000000000000600052604160045260246000fd5b610b9682610a52565b810181811067ffffffffffffffff82111715610bb557610bb4610b5e565b5b80604052505050565b6000610bc861081d565b9050610bd48282610b8d565b919050565b600067ffffffffffffffff821115610bf457610bf3610b5e565b5b610bfd82610a52565b9050602081019050919050565b82818337600083830152505050565b6000610c2c610c2784610bd9565b610bbe565b905082815260208101848484011115610c4857610c47610b59565b5b610c53848285610c0a565b509392505050565b600082601f830112610c7057610c6f610b54565b5b8135610c80848260208601610c19565b91505092915050565b600060208284031215610c9f57610c9e610827565b5b600082013567ffffffffffffffff811115610cbd57610cbc61082c565b5b610cc984828501610c5b565b91505092915050565b7f4e487b7100000000000000000000000000000000000000000000000000000000600052603260045260246000fd5b600082825260208201905092915050565b7f4163636573732064656e69656400000000000000000000000000000000000000600082015250565b6000610d48600d83610d01565b9150610d5382610d12565b602082019050919050565b60006020820190508181036000830152610d7781610d3b565b9050919050565b7f4e487b7100000000000000000000000000000000000000000000000000000000600052602260045260246000fd5b60006002820490506001821680610dc557607f821691505b602082108103610dd857610dd7610d7e565b5b50919050565b60008190508160005260206000209050919050565b60006020601f8301049050919050565b600082821b905092915050565b600060088302610e407fffffffffffffffffffffffffffffffffffffffffffffffffffffffffffffffff82610e03565b610e4a8683610e03565b95508019841693508086168417925050509392505050565b6000819050919050565b6000610e87610e82610e7d84610932565b610e62565b610932565b9050919050565b6000819050919050565b610ea183610e6c565b610eb5610ead82610e8e565b848454610e10565b825550505050565b600090565b610eca610ebd565b610ed5818484610e98565b505050565b5b81811015610ef957610eee600082610ec2565b600181019050610edb565b5050565b601f821115610f3e57610f0f81610dde565b610f1884610df3565b81016020851015610f27578190505b610f3b610f3385610df3565b830182610eda565b50505b505050565b600082821c905092915050565b6000610f6160001984600802610f43565b1980831691505092915050565b6000610f7a8383610f50565b9150826002028217905092915050565b610f9382610a0c565b67ffffffffffffffff811115610fac57610fab610b5e565b5b610fb68254610dad565b610fc1828285610efd565b600060209050601f831160018114610ff45760008415610fe2578287015190505b610fec8582610f6e565b865550611054565b601f19841661100286610dde565b60005b8281101561102a57848901518255600182019150602085019450602081019050611005565b868310156110475784890151611043601f891682610f50565b8355505b6001600288020188555050505b50505050505056fea26469706673582212209845c6f9ff3d515059a82ab541edb160928573f2400ec93c3ed380195a675fe764736f6c634300081c0033",
  "linkReferences": {},
  "deployedLinkReferences": {}
}